:020000040800F2
:1000000000400020E900000871070008750700089B
:1000100000000000000000000000000000000000E0
:100020000000000000000000000000007907000848
:1000300000000000000000007D07000881070008A4
:1000400039010008390100083901000839010008A8
:100050003901000839010008390100083901000898
:10006000390100088D07000839010008390100082E
:10007000390100083901000839010008910200081F
:100080003901000839010008390100083901000868
:100090003901000839010008390100083901000858
:1000A0003901000839010008390100083901000848
:1000B0003901000839010008390100089D070008CE
:1000C000509D000800000020C81B0020509D000823
:1000D0000000000000000000C81B0020C429002010
:0800E000000000000000000018
:1000E8000D488546002103E00C4B5B584350043112
:1000F8000B480C4B42189A42F6D30B4A02E00023F5
:1001080013600432094B9A42F9D300F04BFB09F013
:100118005BFB00F005FAFEE700400020509D000858
:1001280000000020C81B0020C81B0020C429002094
:10013800FEE70000002108E001339BB200E0002345
:10014800034A9342F8D9013189B28142F7D3704703
:100158007404000010B501224021024803F082F91E
:1001680010BDC0460004004810B5002240210248D6
:1001780003F078F910BDC0460004004810B501220C
:1001880080214900014803F06DF910BD00040048C2
:1001980010B5002280214900014803F063F910BD21
:1001A8000004004870B588B0274B59698022D203F3
:1001B8001143596159690A400092009A596980228D
:1001C800D2021143596159690A400192019A596949
:1001D80080229202114359615B691A400292029B84
:1001E8001A4D00221A49280003F03CF98223039390
:1001F80000240494059403A9280002F0D1FFA22347
:100208005B000393012604960594069403A928002D
:1002180002F0C6FFFC231B020393049601360596E1
:10022800069403A9280002F0BBFF80235B00039318
:10023800049605940694079403A99020C00502F03B
:10024800AFFF08B070BDC04600100240000400486F
:1002580044FD000000B583B0094A516901200143FB
:100268005161536903400193019B0022002108302A
:1002780002F086FD092002F0C1FD03B000BDC046B2
:10028800001002407047C04610B51B4805F0BAFD83
:1002980080210901194803F0FFF80023002204E037
:1002A80058001749415A5218013316498B42F7DD55
:1002B800D017C005C00D8018401209F0E7F9A02238
:1002C8001206114B08F0BEFB0022002307F06AFC5F
:1002D8000E4B1860596000F0B1FA09F019FA0C4A8F
:1002E8000C4B08F0AFFB0022002307F05BFC0A4B25
:1002F8001860596010BDC0468822002000040048DC
:10030800181E0020FF0100009999B93FD81B002052
:10031800E411BB3AF0FFFD3ED01B0020FEE7C046CB
:1003280000B585B01848194B03600023436083600B
:10033800C36001220261042141618361C3610262D9
:100348004362C221FF318162C3620263426302F0E9
:1003580005FA002804D0DE2149000D48FFF7DEFF2A
:100368000823019380235B0102930723039301A9C8
:10037800054802F00FFC002804D0E3214900044896
:10038800FFF7CCFF05B000BD0C230020002401407E
:100398003C98000810B51248124B036082235B009A
:1003A800436000238360E022D200C260036143619E
:1003B800802292008261E93AFF3AC2610362436295
:1003C8008362113AC2620363436305F001F90028AE
:1003D80004D0E821FF310448FFF7A0FF10BDC04654
:1003E8001C220020003001403C98000800B587B06E
:1003F80019488023DB050360184B436000238360A2
:10040800F422FF32C2600361836105F0F7FD002822
:1004180004D0FC21FF311248FFF780FF80235B01E5
:10042800029302A90C4805F069FE002803D00D4983
:100438000B48FFF773FF20230093002301936946BD
:10044800054806F0ABF8002804D08221890004484A
:10045800FFF764FF07B000BD88220020FF7C000082
:100468003C9800080102000000B599B031230B93B5
:10047800303B0C930E93139310930F3311930E3B51
:10048800149380235B02159380231B031693002388
:1004980017930BA804F06CF9002804D0BF21490079
:1004A8001E48FFF73BFF07230793053B08930023EC
:1004B80009930A93012107A804F086FD002804D0B7
:1004C8008C21FF311548FFF729FF80239B020093F9
:1004D80000230693684604F09FFE002804D0942168
:1004E800FF310E48FFF71AFF00228021C9040020BF
:1004F80004F0A0FC04F08AFEFA21890007F06AFAE9
:1005080002F08EFC042002F0A7FC0022002101204A
:10051800404202F035FC19B000BDC0463C980008C6
:1005280030B589B002F08EF8FFF79EFFFFF73AFE6C
:10053800FFF790FE00F020FBFFF7F2FEFFF72AFF1F
:10054800FFF754FF0125079507A801F089FE02ACC3
:100558000023A371FA23DB00A380200001F088FEAA
:10056800322002F03BF8200001F090FB1F4B197875
:10057800200001F065FD1E4B1880322002F02EF895
:100588001C4B1D801C4805F0F1FB802292001B4982
:100598001B4802F047FA8025ED001A4C0122290079
:1005A800200002F05FFF642002F06AF800222900B0
:1005B800200002F057FF642002F062F8124B1A681C
:1005C8005B681249087812490C684D6800940195D7
:1005D80000F0A4F9002301E00133DBB2072BFBD9BB
:1005E800044A138801331380D5E7C046C81B00208E
:1005F80018220020CA1B002088220020181E002074
:100608000C23002000040048D81B00200000002014
:10061800D01B00207047C04600B583B00D4A9169D1
:10062800012001439161936903400193019B0022DA
:100638000021063802F0A4FB0022002102204042DB
:1006480002F09EFB002200210120404202F098FBAC
:1006580003B000BD0010024030B587B004001B4B4A
:1006680002689A422FD11A4A916980239B00194344
:100678009161926913400093009B01230193023317
:1006880002930025039501A9124802F089FD12483A
:10069800124B0360456085608023C360803303612B
:1006A8008023DB0043612023836180235B01C361D6
:1006B80002F020FC002803D072210948FFF72EFE23
:1006C800054BE3635C6207B030BDC04600240140BF
:1006D8000010024000040048C82200200800024020
:1006E8004C98000800B587B002680E4B9A4217D1A3
:1006F8000D4A916980235B01194391619269134006
:100708000093009B38230193363B0293013B0393EC
:10071800023304930023059301A9044802F040FD25
:1007280007B000BD0030014000100240000400483E
:1007380000B583B002688023DB059A4210D1094ACC
:10074800D16901200143D161D36903400193019B21
:10075800002200210E3002F013FB0F2002F04EFBA6
:1007680003B000BD001002407047C046FEE7C04617
:100778007047C0467047C04610B501F073FF02F0DD
:100788008BFB10BD10B5024802F0B4FC10BDC0468A
:10079800C822002010B5024803F040FF10BDC04633
:1007A80084250020114B1A6801210A431A605868F1
:1007B8000F4A02405A6018680E4A02401A601868C8
:1007C8000D4A02401A6058680C4A02405A60DA6AB8
:1007D8000F208243DA62186B094A02401A635A6B87
:1007E8008A435A6300229A607047C046001002404C
:1007F8000CB8FF08FFFFF6FEFFFFFBFFFFFFC0FF7F
:100808002CFEFCFF10B501220421024802F02AFE4A
:1008180010BDC0460004004810B50022042102485B
:1008280002F020FE10BDC0460004004810B50221A9
:10083800014802F005FE10BD0004004870B5FFF73E
:10084800E1FF002300E00133012BFCDDFFF7E4FFAB
:10085800002300E00133012BFCDDFFF7D3FF002369
:1008680000E00133012BFCDDFFF7D6FF002404E094
:100878000134FFF7DBFF002801D0632CF8DDFFF718
:10088800C1FF002300E00133012BFCDD002500241B
:1008980009E0FFF7C1FF6D00FFF7C8FF0543FFF749
:1008A800B1FF0134E4B2122CF3D9280070BDC04660
:1008B80010B504000F2808D90A2107F08BF80A237D
:1008C8005B425843C0B22418E4B20F2C03D8A400EA
:1008D800114B1B599F4630201CE032201AE0332070
:1008E80018E0342016E0352014E0362012E03720D6
:1008F80010E038200EE039200CE041200AE04220C8
:1009080008E0432006E0442004E0452002E04620B9
:1009180000E0312010BDC04678980008F0B593B0CB
:1009280014001D00022302AA137050702000290031
:1009380007F01AF906002000290005F0A3FE08F0C8
:10094800A5FE02000B002000290008F0F5FA0400BB
:100958000D0001210A2005F02DFF08F097FE220066
:100968002B0008F06FF807F0FFF80500002E17D1EC
:100978000020FFF79DFF02AB9870033621E00A21A3
:10098800300007F0ADF8C8B2FFF792FF0FAB18556B
:100998000A21300007F01EF806000134E4B200E036
:1009A8000024002EEBD10023023608E0E21A013AB7
:1009B8000FA98A5602A98A550136F6B20133A34215
:1009C800F4DB2E2302AA9355731CDFB2002D18D135
:1009D8000020FFF76DFF02ABD8550236F7B220E0D2
:1009E8000A21280007F07CF8C8B2FFF761FF0FABB7
:1009F80018550A21280006F0EDFF05000134E4B27D
:100A080000E00024002DEBD1002308E0E21A013AAF
:100A18000FA98A5602A9CA557A1CD7B20133A34234
:100A2800F4DB3B2302AAD3557C1CE6B2189819992B
:100A380007F09AF800901898199905F023FE08F025
:100A480025FE02000B001898199908F075FA0400A1
:100A58000D0003210A2005F0ADFE08F017FE220064
:100A68002B0007F0EFFF07F07FF80190009B002BA9
:100A780019D10020FFF71CFF02AB9855BC1CE6B249
:100A880021E00A21009C200007F02AF8C8B2FFF7ED
:100A98000FFF0FAB58550A21200006F09BFF00906E
:100AA8000135EDB200E00025009B002BE9D108E0FC
:100AB800EA1A013A0FA98A5602A98A55741CE6B2A5
:100AC8000133AB42F4DB2E2302AA9355741CE4B223
:100AD800019B002B19D10020FFF7EAFE02AB185545
:100AE800B41CE4B221E00A21019E300006F0F8FFB0
:100AF800C8B2FFF7DDFE0FAB58550A21300006F0EB
:100B080069FF01900135EDB200E00025019B002B43
:100B1800E9D108E0EA1A013A0FA98A5602A90A554A
:100B28000134E4B20133AB42F4DB0123002504E0D5
:100B380002AAD05C2818C5B20133A342F8DB280901
:100B4800FFF7B6FE02AB1855661CF6B20F20284018
:100B5800FFF7AEFE02AB9855A31CDBB2032202A935
:100B6800CA54E31CDBB20732CA54211DC9B202A819
:100B780000F044F813B0F0BD10B5094C0022094943
:100B8800200000F043FA0849200000F05BFA07490A
:100B9800200000F0B1FF200000F05EFA10BDC04652
:100BA8005823002018000020900000200800002092
:100BB800002070470020704710B50100044C200049
:100BC80000F0B0FF200000F0D3FF002010BDC046A9
:100BD8005823002010B5064C00220649200000F0DA
:100BE80095FF0549200000F09DFF002010BDC0467C
:100BF80058230020802500207C25002010B586235E
:100C08009B00094CE458043BE358002B09D1064CDF
:100C18000A000100200000F079FF200000F08AFFA0
:100C280000E0012010BDC0465823002010B5FFF792
:100C38001BFC10BD00B583B002680B4B9A4211D162
:100C48000A4AD16980231B041943D161D269134030
:100C58000193019B002200211F2002F091F81F2020
:100C680002F0CCF803B000BD005C00400010024068
:100C780010B5010087239B00C058ED31FF3100F00B
:100C880009FA10BD10B587239B00C458CA00521A30
:100C98009300C3181933FF331A68200000F02EFAA6
:100CA80010BDC04610B587239B00C458CA00521A0D
:100CB8009300C3189A6B200000F05CFA10BDC04680
:100CC80010B587239B00C05800F0F0FA10BDC0464D
:100CD80070B505008724A4000121005900F0CEFA60
:100CE800285900F0A7FA70BD10B5040087239B00AF
:100CF800C05800F0C7FAA369002B04D0024A116952
:100D080006230B43136110BD00ED00E010B504008D
:100D18008369002B06D0064A136906218B431361A9
:100D2800FFF784FF87239B00E05800F0B7FA10BD57
:100D380000ED00E070B504001F4887239B00C450F5
:100D48000433E0501D4B0360082343600222826095
:100D58000023C36002618361C361036202F0ACFBDC
:100D6800002804D0922149001548FFF7D7FA8825B2
:100D7800AD00182300220021605903F0DBFC582342
:100D880000228021605903F0D5FCC0230022812174
:100D9800605903F0CFFC88235B00002201216059D1
:100DA80003F0C8FC605980235B000022822103F015
:100DB800C1FC002070BDC04684250020005C0040B6
:100DC800B898000810B588239B00C05802F0E0FBD3
:100DD800002802D0022802D003E0002002E001200F
:100DE80000E0022010BDC04610B514001A00882388
:100DF8009B00C058230002F0F3FB002802D0022811
:100E080002D003E0002002E0012000E0022010BD33
:100E180010B588239B00C05802F08AFD002802D034
:100E2800022802D003E0002002E0012000E00220B6
:100E380010BDC04610B588239B00C05802F086FF3D
:100E4800002802D0022802D003E0002002E001209E
:100E580000E0022010BDC04610B588239B00C05892
:100E680002F0D4FF002802D0022802D003E00020BC
:100E780002E0012000E0022010BDC04688239B004C
:100E8800C0584AB2002A09DAA23BFF3B1940CB00FE
:100E9800591A8B00C3182A33187808E07F231940A1
:100EA800CA00511A8B00C3180B33FF3318787047E8
:100EB80010B588239B00C05802F076FB002802D0AA
:100EC800022802D003E0002002E0012000E0022016
:100ED80010BDC04610B58824A400005903F01AF8C4
:100EE800002802D0022802D003E0002002E00120FE
:100EF80000E0022010BDC04610B58824A4000059A7
:100F080002F0FEFD002802D0022802D003E00020F3
:100F180002E0012000E0022010BDC04610B5882381
:100F28009B00C05802F008FF10BDC046004870473B
:100F3800E01B00207047C04612230B800048704712
:100F48003800002004230B8000487047340000203C
:100F580010B50A00002804D10549064800F058FCDD
:100F680003E00349034800F053FC014810BDC046A4
:100F7800A4270020CC98000810B50A00034C2100D3
:100F8800034800F045FC200010BDC046A4270020FF
:100F9800E498000810B50A00002804D1054906485D
:100FA80000F036FC03E00349034800F031FC014837
:100FB80010BDC046A4270020F898000810B50A0004
:100FC800002804D10549064800F022FC03E0034943
:100FD800034800F01DFC014810BDC046A4270020AE
:100FE8000899000810B50A00002804D105490648E8
:100FF80000F00EFC03E00349034800F009FC014837
:1010080010BDC046A42700201499000810B5002878
:1010180016D085239B00C358002B03D000248523BA
:101028009B00C450002902D084239B00C150012199
:10103800FE235B00C1540270FFF77CFE002000E035
:10104800022010BD002904D085239B00C150002038
:1010580000E002207047C04610B5FFF7B3FE00203D
:1010680010BDC04610B585239B00C358002B05D082
:101078001B689847002803D0022002E0022000E005
:10108800002010BD10B585239B00C3585B689847A6
:10109800002010BD70B5040082239B00C5182800ED
:1010A80000F030F90122FA235B00E250124BE25AB9
:1010B800163BE2501033E15CEA3BFF3B0B40012B4F
:1010C80009D0002B02D0022B0AD00EE02900200004
:1010D80000F0BCFA0EE02900200000F0DBFA09E07D
:1010E8002900200000F0F4FA04E07F23994320004F
:1010F800FFF7A0FE002070BD0E02000010B504002E
:101108001300002927D1FA2252008258032A2ED12F
:10111800421DFF329168D26891420CD9891A053074
:10112800FF3081608A4200D90A0092B2190020007B
:1011380000F0B2FB1BE085239B00C3581B69002B02
:1011480005D0FE225200825C032A00D19847200075
:1011580000F0AAFB0BE085239B00C3589B69002B7A
:1011680005D0FE225200825C032A00D19847002055
:1011780010BDC04670B50400130000294BD1FA22F7
:1011880052008258022A3CD1C269056AAA420CD987
:10119800521BC26192B2190000F066FB00230022C4
:1011A80000212000FFF7A8FE2BE086692900300007
:1011B80006F096FC002914D1B54212D8FC235B0036
:1011C800E3589E420DD20022200000F04DFB002281
:1011D800FC235B00E250002300212000FFF78CFE77
:1011E8000FE085239B00E358DB68002B06D0FE2226
:1011F8005200A25C032A01D120009847200000F089
:101208005FFB80239B00E35C012B10D1002280232D
:101218009B00E2540BE085239B00C3585B69002BBD
:1012280005D0FE225200825C032A00D19847002094
:1012380070BDC04670B50400402300220021FFF7AE
:10124800D3FD402588235B00E550D03B0022802158
:101258002000FFF7C9FD25620122FE235B00E2544E
:101268001C33E358002B06D085239B00E3585B68AA
:10127800217920009847002070BDC04601740020E5
:101288007047C046FE235B00C15CFE22FF328154DA
:10129800FA3AFF3AC25400207047C046FE23FF3393
:1012A800C25C013BC25400207047C04610B5FE2303
:1012B8005B00C35C032B06D185239B00C358DB6905
:1012C800002B00D09847002010BDC0460300002026
:1012D80002E00130C0B201331A78002AF9D1704710
:1012E80010B504004B88012B0AD1012281239B00F1
:1012F800C2501033C3589B689847200000F0D4FAB6
:1013080010BDC0460B7803704B7843708A78CB7851
:101318001B029B1843800A794B791B029B18838018
:101328008A79CB791B029B18C380704710B50400DB
:101338008021FFF77FFD00212000FFF77BFD10BD16
:1013480030B583B004000D004A88130A072B00D972
:1013580084E09B004E49CB589F4684239B00C3588A
:101368001B68007C6A46911D98477CE0037C002B33
:1013780009D185239B00C3589B6A6A46901D9847EC
:10138800022343706FE085239B00C358DB6A6A46DB
:10139800901D98470223437065E0D2B2052A39D8D8
:1013A80092003C4B9B589F4684239B00C3585B6824
:1013B800007C6A46911D984755E084239B00C358DA
:1013C8009B68007C6A46911D98474CE084239B00EB
:1013D800C358DB68007C6A46911D984743E0842324
:1013E8009B00C3581B69007C6A46911D98473AE0E8
:1013F80084239B00C3585B69007C6A46911D98470B
:1014080031E084239B00C3589B69007C6A46911D88
:10141800984728E02900FFF789FF37E0037C002B75
:1014280007D185239B00C3585B6B6A46901D98477C
:1014380019E02900FFF77AFF28E0037C002B09D187
:1014480085239B00C3581B6B6A46901D984707234A
:10145800437008E02900FFF769FF17E02900200022
:10146800FFF764FF12E06B4606331B88002B0DD094
:10147800EA88002A0AD0191C934200D9111C8AB2A2
:101488006B46D9800100200000F0E0F903B030BDC0
:10149800249900084499000870B504008B88002B33
:1014A80022D1CB88002B1FD18B787F251D40FE23AE
:1014B8005B00C35C032B02D1FFF738FF17E0FF2363
:1014C8005B00C5542900FFF7F3FC200000F0ECF99D
:1014D800002D04D00222FE235B00E25407E0012223
:1014E800FE235B00E25402E02000FFF71FFF70BDFF
:1014F80070B504000D008978284B1970012903D9AB
:101508002900FFF713FF48E0FE235B00C35C022BB2
:1015180002D0032B17D03DE0002911D041600322EF
:10152800FE235B00C254FFF79DFD022804D1290069
:101538002000FFF7FBFE30E0200000F0B5F92CE0BA
:1015480000F0B2F929E000290AD10222FE235B004B
:10155800C2544160FFF796FD200000F0A5F91CE099
:101568004368994213D0D9B2FFF78CFD0B4B197819
:1015780061602000FFF776FD022804D129002000D1
:10158800FFF7D4FE09E0200000F08EF905E000F036
:101598008BF902E02900FFF7C9FE70BD001E00208C
:1015A80010B5CB88012B02D0FFF7C0FE16E0FE2352
:1015B8005B00C35C022B02D0032B08D00CE0002395
:1015C800836001000831012200F040F906E0011DA6
:1015D800012200F03BF901E0FFF7A8FE10BDC0466C
:1015E80010B5FE235B00C35C023BDBB2012B0ED8B7
:1015F8000123C36081239B00C358002B01D0032320
:10160800C36001000C31022200F020F901E0FFF76D
:101618008DFE10BD10B50400FE235B00C35C023BC9
:10162800DBB2012B0ED84B88012B0DD10022812370
:101638009B00C2501033C3589B689847200000F0A5
:1016480033F901E0FFF772FE10BDC04610B54B78C4
:10165800092B18D89B000E4AD3589F46FFF770FEF7
:1016680013E0FFF719FF10E0FFF742FF0DE0FFF767
:1016780097FF0AE0FFF7B4FF07E0FFF731FE04E049
:10168800FFF7C8FF01E0FFF751FE002010BDC0467C
:101698005C99000870B504000D00FE235B00C35C74
:1016A800032B11D10B79012B0BD885239B00C35831
:1016B8009B689847EB88002B08D1200000F0F4F8CD
:1016C80004E0FFF733FE01E0FFF730FE002070BDB5
:1016D80070B505000C008A88D1B2237860200340D9
:1016E800202B07D1F533FF33EB589B6821002800E6
:1016F80098478AE06378012B2ED0002B54D0032B17
:1017080000D082E0FA33FF33EB5C022B02D0032BCC
:1017180008D01CE0002978D0802976D02800FFF76F
:1017280089FB72E06388002B06D1002904D0802948
:1017380002D02800FFF77EFB85239B00EB589B68AF
:10174800210028009847280000F0AEF85DE021004D
:101758002800FFF7EBFD58E0FE235B00EB5C022B53
:1017680002D0032B08D01AE000294ED080294CD093
:101778002800FFF75FFB48E06388002B45D14B0644
:1017880009D02800FFF768FB85239B00EB589B686E
:10179800210028009847280000F086F835E021004D
:1017A8002800FFF7C3FD30E0FE235B00EB5C022B53
:1017B80002D0032B06D024E04B0626D02800FFF7E2
:1017C80039FB22E0130606D57F240C40013424019E
:1017D8002C19043405E07F240C40103424012C1902
:1017E80004342800FFF74AFB002802D001232360B5
:1017F80001E00023236002222100280000F026F8DF
:1018080003E021002800FFF791FD002070BDC046CD
:1018180070B504000D001600002816D0FFF756FD1D
:10182800431C5B009BB233802B7003236B70013B1E
:1018380008E05A1CD2B20134E9540233DBB2AA18C8
:101848000021117021780029F3D170BD10B5130063
:101858000224FA22520084508361C3610A000021E5
:10186800FFF738FB002010BD10B513000A00002157
:10187800FFF730FB002010BD10B513000324FA2237
:1018880052008450EC3A8350043283500A000021FD
:10189800FFF732FB002010BD10B513000A0000212D
:1018A800FFF72AFB002010BD10B50422FA235B00C5
:1018B800C250002300220021FFF70CFB002010BDBE
:1018C80010B50522FA235B00C25000230022002134
:1018D800FFF712FB002010BD86239B00C358002B86
:1018E80005D00021852292009950002000E00220B6
:1018F8007047C04610B586239B00C4580433C358AC
:10190800002B0DD080229200A05CFF2808D09B6895
:10191800044AA25C21009847FF2280239B00E254DE
:10192800002010BD010200004323038000487047D7
:101938004C00002043230380004870471801002012
:101948004323038000487047D40000200A23038003
:1019580000487047C800002070B504008626B6000D
:101968008559FFF7DBFA83239B00E850A359002B26
:101978000BD087239B00E358DB6883229200A918C9
:10198800083AA8589847002000E0022070BDC046D9
:1019980070B505000C0086239B00C6580978B93B32
:1019A800FF3B0B4029D0202B2ED1E288002A1BD0E8
:1019B80049B200290CDAFD33FF33C3589B686078BD
:1019C80031009847E28831002800FFF73FFF1BE00D
:1019D800627880239B00F254E2880C4BF254E28830
:1019E8003100FFF749FF0FE087239B00C3589B682E
:1019F800607800222100984706E063780A2B03D11B
:101A080001220349FFF722FF002070BD01020000F8
:101A1800011E002070B504008121FFF7F9F90121AA
:101A28002000FFF7F5F982212000FFF7F1F986235E
:101A38009B00E358002B0BD087239B00E3585B687F
:101A480098478625AD006059FFF774FA0023635163
:101A5800002070BD70B50400037C002B0DD18025DB
:101A6800AD002B0002228121FFF7BEF92B000222D4
:101A780001212000FFF7B8F90AE040230222812162
:101A8800FFF7B2F94023022201212000FFF7ACF949
:101A98000823032282212000FFF7A6F9872080006F
:101AA800FFF744FA050086239B00E050002821D068
:101AB8000433E3581B689847002385229200AB50F3
:101AC8000432AB50237C002B09D181239B00EA58B8
:101AD800043B01212000FFF70FFA00200BE08123CF
:101AE8009B00EA58C53BFF3B01212000FFF704FAA1
:101AF800002000E0012070BD002904D087239B004E
:101B0800C150002000E002207047C04686239B0099
:101B1800C358822080001950842189005A5000201F
:101B28007047C04686239B00C258143BD150002002
:101B38007047C04610B586239B00C258002A12D0B1
:101B4800043BD358002B10D1012185239B00D15091
:101B5800043BD35A8221890052588839FF39FFF74C
:101B6800B9F9002002E0022000E0012010BDC046C3
:101B780010B586239B00C358002B15D0027C002A81
:101B880009D1812292009A5880239B000121FFF7F6
:101B9800B3F9002009E0812292009A5840230121DC
:101BA800FFF7AAF9002000E0022010BD10B500F0F0
:101BB800EBFC024A13680433136010BDB8290020F7
:101BC8000022014B1A607047B829002010B50400A4
:101BD80000291DD1224A234900F05AFC66222249D5
:101BE800200000F055FC214A2149200000F050FC5B
:101BF800204A2149200000F04BFC204A20492000BF
:101C080000F046FC1F4A2049200000F041FC23E078
:101C180000F016FB0021200000F0E0FA2000FFF79A
:101C2800CFFF200000F090FC0E49200000F000FCDF
:101C38000D49200000F0FCFB0D49200000F0F8FBE6
:101C48000D49200000F0F4FB0D49200000F0F0FBE6
:101C58000D49200000F0ECFB322000F0BFFC10BD65
:101C6800815A00001C251000202510006B9DF8FFEC
:101C780024251000B6FCFFFF282510003F6C00004B
:101C88002C251000D03F002030251000F8B50500A5
:101C9800012100F0A7FC0021280000F009FC142015
:101CA80000F09CFC4421280000F002FC142000F005
:101CB80095FC6221280000F0FBFB142000F08EFC4C
:101CC8006821280000F0F4FB642000F087FC4349F9
:101CD800280000F08DFB0400642000F07FFC04E085
:101CE8003E49280000F084FB04007C2CF8D1CC226B
:101CF80052003B49280000F0BBFB46223949280026
:101D080000F0B6FB00223849280000F0B1FB0A2297
:101D18003649280000F0ACFB0822FF32344928007D
:101D280000F0A6FB0D223349280000F0A1FB002299
:101D38003149280000F09CFB02223049280000F0BD
:101D480097FB02222E49280000F082FB00222D4931
:101D5800280000F07DFB642000F040FC08222A499E
:101D6800280000F075FBA02252002849280000F046
:101D78007FFBF0222649280000F07AFB254E31002F
:101D8800280000F035FB7D277F423843C2B231007E
:101D9800280000F05DFB204C2100280000F028FB03
:101DA8003843C2B22100280000F052FB9622D2002C
:101DB8001A49280000F05CFBFF223100280000F0DF
:101DC80047FBFF222100280000F042FB00212800E9
:101DD800FFF7FCFE322000F001FCF8BD00241000E3
:101DE800282410002C24100034241000382410005B
:101DF8003C24100040241000482410004C241000FB
:101E080060241000682410006C2410003024100096
:101E1800442410008C241000902410000425100085
:101E2800F0B583B004006B4B1968FFF7BFFE6A4B2F
:101E38000193002500950C2307220221200000F0C1
:101E48009BF9664F019700950C2307227521200006
:101E580000F092F9624E019600950C230722E321C7
:101E6800200000F089F95F4B019300950C233B2279
:101E78000221200000F080F95B4B019300950C23B0
:101E88002A227521200000F077F9584B019300951C
:101E98000C232A22E321200000F06EF90197009517
:101EA8000C234D227521200000F066F9019600955B
:101EB8000C234D22E321200000F05EF94C4B0193E6
:101EC80000950C2381220221200000F055F9494B8E
:101ED800019300950C2370227521200000F04CF925
:101EE800454B019300950C237022E321200000F05C
:101EF80043F9424B019300950C239322752120004E
:101F080000F03AF93E4B019300950C239322E3210C
:101F1800200000F031F93B4B19682000FFF746FE1E
:101F280039492000FFF742FE384F39002000FFF7FB
:101F38003DFE374E31884905364D2940394320004A
:101F4800FFF734FE34492000FFF730FE3188490599
:101F58002940324B19432000FFF728FE304F390043
:101F68002000FFF723FE3188490529403943200026
:101F7800FFF71CFE2B492000FFF718FE31884905A2
:101F88002940294B19432000FFF710FE274F39003D
:101F98002000FFF70BFE318849052940394320000E
:101FA800FFF704FE22492000FFF700FE2149200028
:101FB800FFF7FCFD20492000FFF7F8FD1F4920002E
:101FC800FFF7F4FD842189052000FFF7EFFD03B03A
:101FD800F0BDC046581B002094990008A09900083D
:101FE800A4990008A8990008B4990008B8990008AD
:101FF800BC990008C8990008CC990008D099000835
:10200800D49900085C1B00200300001F00300280E8
:10201800F40100200000E03F0060C48D00600480EF
:102028000090068000C0C88D00C0088000F00A80BB
:102038000000C08D00F0CA8D0000809B00F08A9BD4
:10204800F8B504000F00314EFA25AD003368304A68
:10205800290000F0ADFA3168AC4661442D4B1B688D
:102068002D4A200000F0A4FA200000F0E9F88021B1
:1020780089042000FFF79AFD284E31002000FFF761
:1020880095FD31002000FFF791FD25492000FFF75D
:102098008DFD24492000FFF789FD23492000FFF723
:1020A80085FD22492000FFF781FD21492000FFF727
:1020B8007DFD2A000C21200000F0A8F8002F02D195
:1020C8002000FFF7ADFE2000FFF77AFD200000F0AA
:1020D8003BFA1849200000F09BF90500E32149422A
:1020E800200000F051FA1449200000F04DFA802138
:1020F8004903200000F048FA2900200000F044FAC3
:10210800322000F06BFA2800F8BDC046541B0020AE
:102118005C010020F0010020F801002007000026E3
:102128000000FF040C0000053D0400011506080727
:1021380015240008EC241000A086010010B500F05A
:1021480035F910BD10B500F0FDF810BD70B50400EC
:102158000D0000F0EFF92A000121200000F0D4F86A
:1021680070BDC04670B504000D0000F039F92900B3
:10217800200000F0BDF970BDF0B583B001900C00EF
:1021880017001E0008AB1D88099807F04CFB0100DA
:102198000D310198FFF7DAFFF42149420198FFF762
:1021A800CDFF3F042104090C3943019C2000FFF7AF
:1021B800C5FF2D043104090C29432000FFF7BEFF99
:1021C80009992000FFF7BEFF099807F02CFB0100D2
:1021D8000D312000FFF7C6FF03B0F0BD70B5040055
:1021E8000D000821FFF7B2FFEB2149422000FFF75D
:1021F800A5FF29002000FFF7A1FF08212000FFF715
:10220800B1FF200000F0A0F970BDC04670B5040011
:102218000E0015000C21FFF799FFD5214942200037
:10222800FFF78CFF31002000FFF788FF290020000E
:10223800FFF784FF0C212000FFF794FF70BDC04614
:1022480010B504000421FFF781FF04492000FFF7BF
:1022580075FF04212000FFF785FF10BD00FFFFFF79
:1022680010B5FDF78BFFFDF775FF012010BDC046C7
:10227800002343810381037301207047F8B50700E9
:102288001400002921D1FDF76FFF210CFF252940FB
:102298001B4E338801221B4803F0C2FA210A294049
:1022A80033880122174803F0BBFA290021403388FC
:1022B8000122144803F0B4FA33880122002111489E
:1022C80003F0AEFA01233B7319E0FDF74DFF210C33
:1022D800802319430A4E33880A4D0122280003F04F
:1022E8009FFA210A33880122280003F099FA3388DB
:1022F80001222100280003F093FA02233B73F8BD62
:10230800601B00201C22002010B5028984235B0377
:102318009C466244FFF7B2FF10BDC04610B584B0BA
:10232800064B1B880F246C440093012322000448A9
:1023380003F072FB207804B010BDC046601B00207B
:102348001C22002070B505000E00080007F06BFA8B
:1023580080B205E031782800FFF7E0FF0136200061
:10236800431E9CB20028F5D100212800FFF7D6FFB4
:1023780070BDC04670B505000C00037B022B08D168
:10238800C9B2FFF7CBFF210A2800FFF7C7FF0020DB
:102398000AE00021FFF7C2FF040000212800FFF730
:1023A800BDFF00020443A0B270BDC04670B5040072
:1023B8000D00037B022B08D189B2FFF7DBFF290C44
:1023C8002000FFF7D7FF002009E00021FFF7D2FF28
:1023D800050000212000FFF7CDFF0004284370BD51
:1023E80010B50400FDF7B6FE0023237310BDC046E8
:1023F80070B504000A000021FFF740FF002120000B
:10240800FFF78CFF05002000FFF7EAFF280070BDEA
:1024180070B504000A000021FFF730FF00212000FA
:10242800FFF7A8FF05002000FFF7DAFF280070BDBE
:1024380070B504000A000021FFF720FF00212000EA
:10244800FFF7B4FF05002000FFF7CAFF280070BDA2
:1024580070B5040015000A000121FFF70FFF2900DD
:102468002000FFF75BFF2000FFF7BAFF70BDC046F2
:1024780070B5040015000A000121FFF7FFFE2900CE
:102488002000FFF777FF2000FFF7AAFF70BDC046C6
:1024980070B5040015000A000121FFF7EFFE2900BE
:1024A8002000FFF783FF2000FFF79AFF70BDC046AA
:1024B80070B50E00FDF758FE0B4D2B880B4C012212
:1024C8003100200003F0ACF92B8801220021200004
:1024D80003F0A6F92B8801220021200003F0A0F9BF
:1024E800FDF738FE70BDC046601B00201C2200208E
:1024F80010B5028951180905090D0331034A0A402C
:1025080002810349FFF7B4FF10BDC046FC0F00006D
:10251800E824100010B504890449FFF779FF241A4C
:102528002405240D0248001B80B210BDE4241000CD
:10253800FC0F000070B505000C002800FFF7EAFF4B
:10254800A042FAD370BDC04670B504000C49FFF72D
:102558005FFF05000B492000FFF75AFF08E0084914
:102568002000FFF755FF050006492000FFF750FF40
:102578008542F4D103492000FFF74AFF208170BD4E
:10258800E4241000E824100070B504000D000421B4
:10259800FFF7D0FF218984235B039C4661442A000E
:1025A8002000FFF775FF04212000FFF7A1FF70BD91
:1025B800F8B5070015001C000A000121FFF75EFEB0
:1025C80005E029783800FFF7A9FE01353400661EBA
:1025D800002CF6D13800FFF703FFF8BD10B5FDF762
:1025E800A9FD10BD10B500290FD0FDF7C7FD1420B7
:1025F800FFF7F4FFFDF7CCFD1420FFF7EFFFFDF721
:10260800BDFD1420FFF7EAFF09E0FDF7B7FD142030
:10261800FFF7E4FFFDF7BCFD1420FFF7DFFF10BD57
:1026280010B5040002F0F2FDFA21890005F0D2F994
:1026380000F0F6FB002221000120404200F0A0FB40
:10264800002010BD10B5064A116810230B43136013
:102658000020FFF7E5FFFDF7DFFF002010BDC046B3
:1026680000200240024A1368013313607047C046D5
:10267800C0290020014B18687047C046C0290020B7
:1026880030B583B00190FFF7F5FF0500019C631C8E
:1026980000D00134FFF7EEFF401BA042FAD303B08D
:1026A80030BDC04630B583B00400002301930268F2
:1026B800936803210B40012B07D11368DB0706D46D
:1026C800D3681B0405D4002304E0002302E001239F
:1026D80000E00123002B37D191681D4B194209D026
:1026E800626C102313436364A26C01231343A36435
:1026F80001202AE0916801230B439360154B186869
:10270800154905F067F9019002E0019B013B01932F
:10271800019B002BF9D1FFF7ADFF05000EE0FFF795
:10272800A9FF401B022809D9626C10231343636474
:10273800A26C01231343A364012006E023681B68ED
:10274800DB07ECD5002000E0002003B030BDC04618
:10275800170000800400002040420F0070B5041EDE
:1027680000D153E1AA4B02689A4204D07421FF3188
:10277800A848FDF74FFF6368002B0CD08022D205D4
:10278800934208D080221206934204D0BA2149000D
:10279800A048FDF73FFFA368002B0AD0082B08D0FC
:1027A800102B06D0182B04D07621FF319948FDF75D
:1027B80031FFE368002B06D0202B04D0BB21490051
:1027C8009448FDF727FF2369013B012B04D97821A1
:1027D800FF319048FDF71EFF236A012B04D9BC2165
:1027E80049008C48FDF716FF636A012B04D97A214A
:1027F800FF318848FDF70EFFE36A002B10D08022D6
:10280800D20093420CD080221201934208D0C022F9
:102818001201934204D0BD2149007E48FDF7FAFE1B
:10282800A36A002B12D0402B10D0802B0ED0C02BC7
:102838000CD080225200934208D0C222FF32934229
:1028480004D07C21FF317348FDF7E4FE236B012B94
:1028580004D9BE2149006F48FDF7DCFE6369042BEB
:1028680006D0082B04D07E21FF316A48FDF7D2FE3E
:10287800636B012B04D9BF2149006648FDF7CAFEE6
:10288800A369012B04D98021FF316248FDF7C2FEFC
:10289800E369012B04D9C02149005E48FDF7BAFE5F
:1028A800636C002B05D1A3644022A3542000FDF7DC
:1028B800D3FE636CDB0600D5A2E02268936804218E
:1028C8000B4000D09CE0606C53490140022001435A
:1028D8006164916801300140012907D11168C90775
:1028E80006D4D168090405D4002104E0002102E0DF
:1028F800012100E0012100290CD1D1681820814371
:10290800A0680143D16021680A6992009208606852
:1029180002430A612168C868404A0240CA60A26945
:102928009103E269D2030A43206A41030A43616BB7
:10293800012902D08021490100E019000A43E16819
:102948000A432169022900D104231343226B520050
:102958001343626A012A0DD1002803D18022520252
:10296800134307E0616C20220A436264A16C0122D0
:102978000A43A264A26AC221FF318A4202D0E16AF4
:102988000A4313432168CA681A43CA60A26B8021AC
:1029980049058A420DD0012A0BD0022A09D0032A00
:1029A80007D0042A05D0052A03D0062A01D0072A11
:1029B8000AD1206841690722914341612168486929
:1029C800A56B2A4002434A612268D168144A0A402A
:1029D800934209D10023A364636C03229343023A10
:1029E80013436364002012E0636C12229343023A9B
:1029F80013436364A26C01231343A364012006E01C
:102A0800626C102313436364012000E0012070BD51
:102A180000240140589A0008FDFEFFFF1902FEFF3E
:102A2800E7FF3F83F8B504000E001700294B026842
:102A38009A4203D028492948FDF7ECFD23689B6892
:102A48005B0740D44023E35C012B3ED001224023A6
:102A5800E254E369012B04D02000FFF723FE0500B0
:102A680000E00025002D32D1626C1D4B13408022FE
:102A78005200134363640023A364C03AA354E36B76
:102A8800184A9A62E36B184ADA62E36B174A1A63C8
:102A980023681C221A602268516810230B43536074
:102AA8002268D16801230B43D360216840313B0081
:102AB8003200E06B00F0D0FA2268916804230B43DF
:102AC8009360280004E0022002E0022000E02800D1
:102AD800F8BDC04600240140BC040000589A000814
:102AE800FEF0FFFFFD2A0008712B0008812B00086B
:102AF8007047C04610B5436A5A6C502111422AD11A
:102B08005A6CB131FF310A435A641A68D068C0213F
:102B1800090108421BD1196A002918D1116809074F
:102B280015D5916849070AD451680C208143516032
:102B3800596C0B4A0A4001210A435A6407E0596C50
:102B480020220A435A64996C01220A439A641800A5
:102B5800FFF7CEFF02E0DB6B1B6B984710BDC0464A
:102B6800FEFEFFFF7047C04610B5406AFFF7FAFF48
:102B780010BDC0467047C04610B5406A426C40233D
:102B880013434364826C042313438364FFF7F2FF07
:102B980010BDC04630B583B004000D00002301937A
:102BA800694B02689A4203D068496948FDF732FDCB
:102BB8002B68122B03D967496548FDF72BFD6B6815
:102BC800654A94466344012B03D964496048FDF77C
:102BD80021FDA36B80225205934222D0012B20D0E5
:102BE800022B1ED0032B1CD0042B1AD0052B18D077
:102BF800062B16D0072B14D0AB68934211D0012BAB
:102C08000FD0022B0DD0032B0BD0042B09D0052B92
:102C180007D0062B05D0072B03D051494C48FDF7A8
:102C2800F9FC4023E35C012B00D189E00122402319
:102C3800E25423689A68520773D44A4A69689142F1
:102C480054D0996A0122286882400A439A62A36B89
:102C58008022520593421ED0012B1CD0022B1AD081
:102C6800032B18D0042B16D0052B14D0062B12D00A
:102C7800072B10D02268536907210B40A968994295
:102C880009D0516907239943516122685169A8689D
:102C980003400B4353612B681A00103A022A46D8A6
:102CA800314A1268102B04D0112B05D18023DB0385
:102CB80004E080231B0401E080235B0413432A4AB9
:102CC80013602B68102B34D1284B1868284904F05E
:102CD80081FE830018184300019302E0019B013B29
:102CE8000193019B002BF9D1002025E09A6A01216C
:102CF800286881408A439A622B681A00103A022A8F
:102D080019D8194A1268102B03D0112B03D1194B6B
:102D180002E0194B00E0194B1340134A13600020DE
:102D28000AE0626C202313436364012004E000205E
:102D380002E0002000E0002000224023E25400E0EE
:102D4800022003B030BDC0460024014051060000F7
:102D5800589A00085206000000F0FFFF53060000D2
:102D68005706000001100000082701400400002059
:102D780040420F00FFFFBFFFFFFF7FFFFFFFFFFE87
:102D880070B505000C00032903D99B211848FDF7ED
:102D980041FC002D18DAE8B20F230340083B9B08DA
:102DA80006339B00134A9446634459680325284018
:102DB800C000FC352A0082409143A2012C00144037
:102DC80084400C435C6011E0AA080B4EC0329200AC
:102DD800915903202840C000FF252B0083409943C8
:102DE800A3012C001C4084400C43945170BDC04684
:102DF800909A000800ED00E000E100E010B5041E24
:102E080003DAAB210448FDF705FC1F20204001230D
:102E18008340024A136010BD909A000800E100E068
:102E280001380A4B98420FD8094A506009490B6A81
:102E38001B021B0AC020000603430B620023936099
:102E480007331360002000E001207047FFFFFF00F8
:102E580010E000E000ED00E010B50400042806D002
:102E6800002804D03621FF310848FDF7D3FB042C95
:102E780005D1074A116804230B43136004E0044A90
:102E8800136804218B43136010BDC046909A000854
:102E980010E000E07047C04610B5FFF7FBFF10BD1B
:102EA80070B5C56B0124066CB4406C60046863603F
:102EB8004368102B04D103689A600368D96003E063
:102EC800036899600368DA6070BDC04610B50400F5
:102ED8000368064A944663441800142104F07AFDF6
:102EE80080002064024BE36310BDC046F8FFFDBFBD
:102EF8000000024070B5041E00D198E003684D4AF6
:102F0800934215D04C4A934212D04C4A93420FD068
:102F18004B4A93420CD04B4A934209D04A4A9342B7
:102F280006D04A4A934203D0A5214948FDF772FBCF
:102F38006368002B09D0102B07D08022D20193425E
:102F480003D0A6214248FDF765FBA368402B05D0B6
:102F5800002B03D0A7213E48FDF75CFBE368802BDC
:102F680005D0002B03D0A8213948FDF753FB23696E
:102F7800002B0BD080225200934207D00132FF323F
:102F8800934203D0A9213248FDF744FB6369002B23
:102F98000BD08022D200934207D0802212019342A4
:102FA80003D0AA212A48FDF735FBA369002B05D0D9
:102FB800202B03D0AB212648FDF72CFBE369002B1F
:102FC8000FD08022520193420BD08022920193426B
:102FD80007D0C0229201934203D0AC211C48FDF7D0
:102FE80019FB21250223635520680168194B1940F4
:102FF8006368A2681343E268134322691343626952
:103008001343A2691343E2691A430B001343036095
:103018002000FFF75BFF0023A362E362236363637F
:10302800A363012262551F32A354002000E001204F
:1030380070BDC046080002401C000240300002403B
:1030480044000240580002406C00024080000240E8
:10305800CC9A00080FC0FFFFF8B504000E00170057
:103068001D005A1E214B9A4204D9AF21490020481D
:10307800FDF7D0FA2023E35C012B35D00122202371
:10308800E2540133E35C012B29D101322033E254AD
:103098000023A3632268136801218B4313602B006C
:1030A8003A0031002000FFF7FBFEE36A002B05D051
:1030B800226811680E230B43136009E02268116827
:1030C8000A230B4313602268136804218B4313609F
:1030D8002268116801230B431360002005E00022D9
:1030E8002023E254022000E00220F8BDFEFF000089
:1030F800CC9A000870B5C36B1A6804682568016C1F
:1031080004238B40134212D06B0710D523689B060B
:1031180003D42368042293432360C26B0423016C05
:103128008B405360C36A002B38D0984736E002239F
:103138008B40134218D0AB0716D523689B0606D4DC
:1031480023680A2293432360093A2123C254C26B9D
:103158000223016C8B40536000222023C254836AEF
:10316800002B1BD0984719E008238B40134215D039
:103178002B0713D523680E2293432360C26B0123C8
:103188001900046CA14051608363212283540022FA
:103198001F33C254036B002B00D0984770BDC04644
:1031A800F0B557464E464546E0B482B005000C00DF
:1031B8009023DB05984212D0924B98420FD0924B45
:1031C80098420CD0914B984209D0914B984206D026
:1031D800904B984203D0C1218F48FDF71BFA236812
:1031E8001A0401D01B0C03D0C2218B48FDF712FA38
:1031F8006368012B1DD9112B1BD0022B19D0122B60
:1032080017D0864A934214D0854A934211D0854AF2
:1032180093420ED0844A93420BD0844A934208D0FA
:10322800834A934205D0032B03D0C3217A48FDF784
:10323800F1F9A368022B03D9C4217748FDF7EAF90D
:103248000026D3E00122B240904617001F4000D16B
:10325800CBE06368022B01D0122B29D19023DB0528
:103268009D420FD0674B9D420CD0674B9D4209D0C1
:10327800664B9D4206D0664B9D4203D0D3216648DB
:10328800FDF7C8F92369072B03D9D4216248FDF754
:10329800C1F9F108083189004859072333409B00D8
:1032A8000F229A40904322699A40030013434B51DE
:1032B8002A6873009A460323190050468140C9437F
:1032C80089460A4061680B40834013432B6063685A
:1032D8005A1E012A03D9112B01D0122B1BD1E368E6
:1032E800012B05D9032B03D0E8214B48FDF792F9B0
:1032F800AB684A461340E26851468A401343AB60C4
:103308006B6842469343190063681A090123134006
:10331800B3400B436B60EB684A461340A2685146C2
:103328008A401343EB606368DB005ED5414A9169CC
:10333800012001439161936903400193019BB30804
:103348009A1C92003C495058032131408A000F21B1
:10335800914088439021C9058D420DD029498D425D
:103368000CD029498D420BD028498D420AD02849D2
:103378008D4209D1042108E0002106E0012104E082
:10338800022102E0032100E0052191400A000243E6
:1033980002339B0028495A50284B1A68FB431900EE
:1033A80011406068C00301D53A431100234A1160F7
:1033B8005268110019406068800301D53A43110032
:1033C8001E4A51609268110019406068C00201D518
:1033D8003A431100194A9160D26813406168890222
:1033E80001D53B001343154AD360013623681A0000
:1033F800F24000D026E702B01CBC90469946A2468F
:10340800F0BDC0460004004800080048000C004811
:103418000010004800140048049B00080000111028
:1034280000002110000031100000121000002210CE
:10343800000032100010024000000140000401406A
:1034480070B505000C1E04D18E21FF310448FDF72C
:10345800E1F82B69234201D0012000E0002070BD73
:10346800049B000870B506000C001500002904D163
:10347800D62149000748FDF7CDF8012D04D9AE2122
:10348800FF310448FDF7C6F8002D01D0B46100E013
:10349800B46270BD049B000870B504000D1E04D111
:1034A800E12149000348FDF7B5F8616969406161A8
:1034B80070BDC046049B000870B5041E60D0314B37
:1034C80002689A4203D095212F48FDF7A3F8EA2312
:1034D800FF33E35C002B06D10022E933FF33E254CB
:1034E8002000FDF7A7FB0322EA23FF33E254002262
:1034F80011E0D100891A8B00E31819002931012045
:10350800087001390A7018002B30002101705963C6
:103518009963D963013260688242EAD3002214E0D9
:10352800D100891A8B00E3181D000A35FF350021E8
:103538002970013D2A700335297009352960043541
:1035480029601D33FF33196001328242E8D34023DA
:1035580001222168CA5200222168CA5244212068E7
:1035680042520C3120684252084A2168CA521C3B18
:103578000022E254EA23FF330122E254002000E053
:10358800012070BD005C0040409B000800BFFFFFA9
:1035980001685822885A034B03439BB28B52002080
:1035A8007047C0460080FFFFF4235B00C35C012B1B
:1035B80013D00122F4235B00C254002905D17F32C5
:1035C8009D3BFF3B0168CA5201E02423C1540022FD
:1035D800F4235B00C254002000E002207047C0467C
:1035E80070B54DB2002D07DA7F260E40F400A61BF9
:1035F800B4002834041907E07F260E40F400A61B07
:10360800B4000934FF3404197F2631402170ED0FCE
:103618006570E260E370F4235B00C35C012B00D1AA
:103628006CE10122F4235B00C254E378012B2AD019
:10363800002B04D0022B0FD0032B17D02FE02378B8
:103648009B000268944663441988AD4A0A40802169
:1036580089000A431A8022E023789B000268944676
:1036680063441988A64A0A401A8018E023789B0008
:103678000268944663441988A14A0A40C021C900D7
:103688000A431A800BE023789B000268944663443F
:1036980019889B4A0A408021C9000A431A80237866
:1036A8009A0001688C4662441588964929400B4364
:1036B80095490B431380A37A002B00D077E06378F9
:1036C800002B2AD003685022995A2278D2008A18EF
:1036D800D3188022D20094466344A28801218A43E9
:1036E8001A8023789B0002689446634419884A0626
:1036F80004D5844A0A4085490A431A8021788900FA
:1037080003689C4661440A88814B13402022534039
:103718009BB27D4A13430B80EAE003685025595B4E
:103728002278D2008A18D3187A4A94466344A28829
:1037380001218A431A8001684B5B2278D2009B18CA
:103748005B18754A94466344E1683E290BD94A09D7
:1037580092B2C90601D1013A92B2920292B26F496D
:103768000A431A8007E04A0892B2C90701D5013214
:1037780092B292021A8023789B00026894466344AE
:1037880019884A0404D55F4A0A4065490A431A80E1
:103798002278920003689C4662441188614B0B4072
:1037A800C02189014B4058490B431380A0E023787E
:1037B8009B0002689446634419885B4A0A405B4947
:1037C8000A431A8003685025595B2278D2008A1868
:1037D800D3188022D20094466344E28801218A43A8
:1037E8001A8003685D5B2278D200AA18D318494A68
:1037F8009446634422898A431A806378002B3DD11A
:1038080023789B0002689446634419884A0404D5C7
:103818003C4A0A4042490A431A8023789B000268BE
:103828009446634419884A0604D5364A0A403749FB
:103838000A431A8023789B000268944663441988D7
:10384800304A0A4031490A431A80227892000368B4
:103858009C4662441188334B0B40C02189014B4080
:10386800294D2B43138023789B00026894466344B8
:103878001A8827490A402A431A8039E023789B008E
:1038880002689446634419884A0404D51D4A0A40CC
:1038980023490A431A8023789B00026894466344AC
:1038A80019884A0604D5174A0A4018490A431A8053
:1038B80023789B000268944663441988114A0A4099
:1038C80017490A431A8023789B0002689446634488
:1038D80019880F4A11400C4D2943198023789B0001
:1038E8000268944663441A880E490A402A431A809B
:1038F8000022F4235B00C254002000E0022070BDC7
:103908008F89FFFF0F0F00008080FFFFC080FFFF3F
:10391800BF8FFFFF04040000060400000080FFFFC3
:1039280080C0FFFF8FBFFFFF0F0E00008081FFFFE9
:1039380010B54AB2002A07DA7F240C40E3001C1BAA
:10394800A3002833C31807E07F240C40E3001C1BA6
:10395800A3000933FF33C3187F2421401970D20F05
:103968005A70F4225200825C012A00D1B9E0012188
:10397800F422520081549A7A002A34D15A78002AC3
:1039880018D01A78920001688C466244148861063F
:1039980004D555492140554C214311801B789B0083
:1039A8000268944663441988514A0A4051490A43B7
:1039B8001A8090E01A78920001688C466244148854
:1039C800610404D5484921404B4C214311801B78A0
:1039D8009B000268944663441988484A0A4045494E
:1039E8000A431A8077E05A78002A3AD11A78920066
:1039F80001688C4662441488610404D53A49214020
:103A08003D4C214311801A78920001688C4662442B
:103A18001488610604D534492140344C214311806F
:103A28001A78920001688C46624414882E49214015
:103A38002E4C214311801A78920001688C4662440A
:103A480014882E4921402B4C214311801B789B0060
:103A58000268944663441A8825490A4022431A801A
:103A680039E01A78920001688C466244148861042F
:103A780004D51D492140204C214311801A78920019
:103A880001688C4662441488610604D516492140B1
:103A9800164C214311801A78920001688C466244C2
:103AA800148811492140144C214311801A7892003E
:103AB80001688C46624414880D4921400D4C21430D
:103AC80011801B789B000268944663441A880B494E
:103AD8000A4022431A800022F4235B00C2540020CB
:103AE80000E0022010BDC0460F0F0000C080FFFF9D
:103AF800BF8FFFFF8080FFFF80C0FFFF8FBFFFFFEA
:103B080070B57F242140CD006D1AAC000419250042
:103B18001935FF352A6022001D32FF321360043246
:103B280000231360173A13700934FF342170E93306
:103B3800FF33C35C012B00D1F2E00122F4235B00C8
:103B4800C254CA00521A9300C3181A001D32FF3219
:103B580012681533FF331C68A24209D9CD006D1ACB
:103B6800AB00C3181D33FF33121B1A60220007E095
:103B7800CC00641AA300C3181D33FF3300241C6053
:103B8800CC00641AA300C3181333FF331B78002B2F
:103B980026D104685033E65ACD006D1AAB00C3181D
:103BA8000933FF331B78DB00F3181C195D4B9C4667
:103BB80064443E2A0BD95509ADB2D30601D1013D63
:103BC800ADB2AD02ADB2584B1D4325808EE053080F
:103BD8009BB2D20701D501339BB29B02238085E0BB
:103BE800CC00641AA300C3180A33FF331B78002BD8
:103BF80026D104685033E65ACD006D1AAB00C318BD
:103C08000933FF331B78DB00F3181C19474B9C461C
:103C180064443E2A0BD95509ADB2D30601D1013D02
:103C2800ADB2AD02ADB2404B1D4325801BE0530839
:103C38009BB2D50701D501339BB29B02238012E0CA
:103C4800012B10D1036850241E5BCD006D1AAC0007
:103C580004190934FF342478E4003419E318334C88
:103C6800A44663441A80CC00641AA300C3180A331C
:103C7800FF331B78002B26D104685033E65ACD0059
:103C88006D1AAB00C3180933FF331B78DB00F31838
:103C98001C19244B9C4664443E2A0BD95509ADB2E5
:103CA800D30601D1013DADB2AD02ADB21E4B1D43ED
:103CB80025801BE053089BB2D20701D501339BB284
:103CC8009B02238012E0012B10D1036850241E5B55
:103CD800CD006D1AAC0004190934FF342478E400CF
:103CE8003419E3180F4CA44663441A80CB00591AC0
:103CF8008B00C3180933FF331A78920003689C4677
:103D0800624411880A4B0B40C02189014B40094984
:103D18000B4313800022F4235B00C254002000E010
:103D2800022070BD060400000080FFFF02040000AE
:103D38008FBFFFFF8080FFFF7F231940CA00511A01
:103D48008B00C3182133FF331888704710B5F4234C
:103D58005B00C35C012B4DD00122F4235B00C254ED
:103D68004AB2002A07DA7F240C40E3001C1BA30098
:103D78002833C31805E0CC00641AA3000933FF33C5
:103D8800C31801249C707E3421401970D20F5A70D8
:103D980000290CD1890003689C4661440A88164BA7
:103DA8001340164A5340164A13430B801CE0002A5E
:103DB8000DD0890003689C4661440A88114B134062
:103DC800102253409BB20E4A13430B800CE089002B
:103DD80003689C4661440A880B4B134080225201B9
:103DE8005340074A13430B800022F4235B00C2545C
:103DF800002000E0022010BDBFBFFFFF1010000030
:103E08008080FFFFBF8FFFFF8FBFFFFF10B54AB253
:103E1800002A07DA7F240C40E3001C1BA300283388
:103E2800C31805E0CC00641AA3000933FF33C31894
:103E380000249C707F3421401970D20F5A70F422EC
:103E48005200825C012A43D00121F422520081549D
:103E58005A78002A1BD01A78920001688C4662446E
:103E68001488610604D51B4921401B4C214311804D
:103E78001978890003689C4661440A88174B1340E7
:103E8800302253409BB2164A13430B801AE01A782B
:103E9800920001688C4662441488610404D50D4977
:103EA8002140104C214311801A78920003689C46E7
:103EB800624411880C4B0B40C02189014B400849D2
:103EC8000B4313800022F4235B00C254002000E05F
:103ED800022010BD0F0F0000C080FFFFBF8FFFFF43
:103EE8008080FFFF80C0FFFF8FBFFFFF10B5013349
:103EF8005B0810188022D200821807E008784C78F6
:103F08002402044314800231013B0232002BF5D114
:103F180010BDC046F8B505007F240C40E000001B2A
:103F28008100080069188A63CB6300230B640B00C7
:103F3800293301221A7028310C70F4235B00EB5CE2
:103F4800012B00D1F6E0F4235B00EA542A18D36B66
:103F5800526B934207D9E000001B810069189B1A35
:103F6800CB63130005E0E100091B8A00AA180021B1
:103F7800D163E100091B8A001100AA1832321278B5
:103F8800002A14D19FB26E18B28D3B00B16B28681D
:103F9800FFF7ACFF2B685022995A28363278D200A6
:103FA8008A18D318644A944663441F80A9E02E688F
:103FB800E000001B8100691828310A789100715AC5
:103FC800490637D5E000001B8100691829310978B6
:103FD80000291ED15031715AD2008A189619574AB1
:103FE800944666443E2B0BD95A0992B2D90601D1A0
:103FF800013A92B2920292B251490A43328013E0D6
:104008005A0892B2D90701D5013292B2920232808F
:104018000AE0012908D14F31715AD2008A1896193D
:10402800464A944666443380E100091B8A00AA1870
:10403800128E36E0E000001B8100691829310978EA
:1040480000291ED15031715AD2008A1896193A4A5D
:10405800944666443E2B0BD95A0992B2D90601D12F
:10406800013A92B2920292B235490A43328013E081
:104078005A0892B2D90701D5013292B2920232801F
:104088000AE0012908D14F31715AD2008A189619CD
:10409800294A944666443380E100091B8A00AA181D
:1040A800D28D9BB2E100091B8E00AE19B16B286856
:1040B800FFF71CFF29363378002B10D1E200121BC2
:1040C8009300EB1828331B789B002A6894466344B6
:1040D80019881C4A0A401C490A431A8011E0012B1E
:1040E8000FD1E200121B9300EB1828331B789B00BA
:1040F8002A68944663441988124A0A4013490A43B5
:104108001A80E1000C1BA300EB18283319788900EA
:104118002B689C4661440A880D4B1340302253405B
:104128009BB20C4A13430B800022F4235B00EA5431
:10413800002000E00220F8BD020400000604000090
:104148000080FFFF0F0F0000C080FFFF80C0FFFF4F
:10415800BF8FFFFF8080FFFF30B55D0810188022F9
:10416800D200821806E014880C70240A4C70013DB5
:1041780002320231002DF6D1DB0701D513880B700E
:1041880030BDC046F0B583B00500002201AB1A80EF
:104198002EE26B46DC880F231C4000D0B0E06B4653
:1041A80006331B88DB062ED40288CC4B13400380D1
:1041B8002B685022995A283AAA5CD2008A18D31838
:1041C800C74A944663441B889B059B0D2B64AA6BC6
:1041D80094466344AB6300212800FCF763FD242365
:1041E800EB5C002B00D103E2EB6B002B00D0FFE16E
:1041F8002422A95C803B0B43DBB24C212868435244
:104208000023AB54F4E1028801AB1A801B881B051C
:104218001FD55023C25AB833EB5CDB00D3181B18E8
:10422800B04A944663441B889B059B0D2A000932BB
:10423800FF3293612900ED31FF319288FFF78CFF3F
:104248002A681188A84B0B4013802800FCF710FD42
:10425800CEE101AB1B881BB2002B00DBC8E1028852
:10426800A14B1340038028685023C25AB833EB5C33
:10427800DB00D3181B189B4A944663441B889B0594
:104288009B0D2A000932FF329361002B09D01400DC
:1042980092882169FFF760FF2369A2699446634405
:1042A800236100212800FCF7EDFC2A685023D35A2B
:1042B800D3188C4A99182B000933FF33DA683E2A41
:1042C8000BD953099BB2D20601D1013B9BB29B0289
:1042D8009BB2864A13430B8007E053089BB2D20770
:1042E80001D501339BB29B020B802A681188804B51
:1042F8000B40C02189014B407E490B43138077E175
:10430800A6008019028801AB1A801B881BB2002BFB
:1043180000DBB2E0744B1A400280E200121B9300EB
:104328001A00EB181333FF331B78002B1DD12868B4
:104338005033C75A1100AA180932FF321378DB002C
:10434800FB181B18674A944663441F88BF05BF0DB6
:104358005DD06B181A000D32FF3212881933FF3303
:1043680019683B00FFF7F8FE51E02868E200121BCD
:104378009300EB180933FF331B789A00825A5204D2
:104388001AD55022825ADB00D3181B18544A944677
:1043980063441F88BF05BF0D28D0E200121B93009D
:1043A800EB181A000F32FF3212881933FF331968DD
:1043B8003B00FFF7D1FE19E05022825ADB00D318E8
:1043C8001B18484A944663441F88BF05BF0D0DD08B
:1043D800E200121B9300EB181A001132FF32128808
:1043E8001933FF3319683B00FFF7B6FEE200121BD2
:1043F8009300EB180933FF331B789B002A68944617
:10440800634419883C4A0A403C490A431A803800E8
:10441800E3001B1B990069180A002132FF32136858
:10442800DB1913600B001933FF331A68944667448D
:104438001F601D31FF310B68002B08D0E200121BF2
:10444800910069181531FF310A6890420AD2E200DA
:10445800121B9300EB180933FF3319782800FCF777
:1044680011FC0AE0E100091B8A00AA180932FF3290
:1044780011783A002800FFF743FB01AB1B881B06A5
:1044880000D4B5E02B689C4666443288134B134031
:104498003380E200121B93001A00EB1832331B78AA
:1044A800002B2DD128685033C65AAA181300283378
:1044B8001B78DB00F3181B1809498C4663441B88DA
:1044C8009B059B0D136467D0E200121B91006918CD
:1044D8008A8D896BFFF70AFD5EE0C0460F8FFFFFEC
:1044E80002040000060400008F0F00000080FFFF98
:1044F8008FBFFFFF8080FFFF0F0F0000C080FFFF0E
:104508002868E200121B9300EB1828331B789A00E6
:10451800825A520618D55022825ADB00D3181B182B
:104528003A4A944663441B889B059B0DE100091B8E
:104538008A001100AA181364002B1DD06918CA8DAF
:10454800896BFFF7D3FC17E05022825ADB00D3189F
:104558001B182F4A944663441B889B059B0DE1005A
:10456800091B8A001100AA181364002B04D06918CB
:104578000A8E896BFFF7BAFCE200121B9300EB1856
:1045880028331B789B002A68944663441988214A7B
:104598000A4021490A431A802A685023D65AE00063
:1045A800001B83001800EB18190028310978C9008E
:1045B80071188A1815498C46624412889205920D22
:1045C8001A64996B8C4662449A63DB6B002B06D1A4
:1045D8002B18283319782800FCF764FB08E0E10061
:1045E8000C1BA1006918283109782800FFF792FCF4
:1045F80028684423C35A9BB26A46D3801BB2002B57
:1046080000DAC6E5002003B0F0BDC0460204000091
:10461800060400000F0F000080C0FFFF70B5040003
:1046280044230268D35A1BB2002B01DAFFF7AAFD14
:10463800236844229A5A52050BD54421585A354AC0
:1046480002405A522000FCF743FB00212000FEF7ED
:10465800ABFF236844229A5A520404D54421585A7D
:104668002D4A02405A52236844229A5A920404D589
:104678004421585A294A02405A52236844229A5AD5
:10468800D20410D54022995A042081439952244BD0
:1046980021688B522000FCF739FB21684422885A94
:1046A800204B03408B52236844229A5A120518D58E
:1046B8004421585A1C4A02405A5220684022855ABE
:1046C80008232B439BB283522068855A04232B432B
:1046D8009BB2835223685B5ADB0402D42000FCF7A8
:1046E80003FB236844229A5A920507D54421585A55
:1046F8000E4A02405A522000FCF7E2FA236844228C
:104708009A5AD20504D54421585A094A02405A52A5
:1047180070BDC046FFFBFFFFFFBFFFFFFFDFFFFFCE
:1047280000BDFFFFFFEFFFFFFFF7FFFFFFFDFFFFEC
:10473800FFFEFFFF10B50C0607D57F242140CC00F3
:10474800611A8C002834001905E0CC00611A8C002D
:104758000934FF340019002A02D18272838004E0F0
:1047680001228272C3801B0C0381002010BDC04649
:1047780070B582B0041E04D189214900C348FBF7F3
:1047880049FF2368002B06D09B0604D11421FF3172
:10479800BE48FBF73FFF2368DB0772D56368012B30
:1047A80006D9052B04D01A21FF31B848FBF732FF90
:1047B800B74B5B680C221340042B0DD0B44B5B68DD
:1047C8001340082B10D1B24B5A68C0235B02134028
:1047D80080225202934207D1AD4B1B689B0350D5F0
:1047E8006368002B4DD1E1E26368012B06D1A84A2A
:1047F8001368802149020B43136022E0002B09D182
:10480800A34B1968A34A0A401A601968A24A0A40C9
:104818001A6016E0052B0BD19D4B1A688021C9023E
:104828000A431A601A68802149020A431A6008E09C
:10483800974B1968974A0A401A601968964A0A40BD
:104848001A606368002B0ED0FDF714FF050005E021
:10485800FDF710FF401B642800D9C1E28C4B1B6890
:104868009B03F5D50DE0FDF705FF050005E0FDF715
:1048780001FF401B642800D9B4E2854B1B689B03E9
:10488800F5D423689B0765D5E368012B04D94E212D
:10489800FF317E48FBF7BEFE23691F2B04D9A721F1
:1048A80049007A48FBF7B6FE794B5B680C221A423E
:1048B8000DD0774B5B681340082B19D1744B5A689D
:1048C800C0235B02134080221202934210D1704B26
:1048D8001B689B0703D5E368012B00D084E26C4971
:1048E8000B68F82293432269D20013430B6031E02E
:1048F800E368002B1BD0664A116801230B43136041
:10490800FDF7B8FE050005E0FDF7B4FE401B0228E0
:1049180000D96BE25E4B1B689B07F5D55C490B68B9
:10492800F82293432269D20013430B6012E0584ADD
:10493800136801218B431360FDF79CFE050005E019
:10494800FDF798FE401B022800D951E2504B1B6826
:104958009B07F5D423681B0731D5E369012B04D9DC
:10496800C72149004948FBF755FEE369002B13D0DE
:10497800474A516A01230B435362FDF77BFE05004A
:1049880005E0FDF777FE401B022800D932E2404BD4
:104998005B6A9B07F5D512E03D4A536A01218B43B8
:1049A8005362FDF767FE050005E0FDF763FE401B57
:1049B800022800D920E2364B5B6A9B07F5D42368AE
:1049C8005B0700D48EE0A368012B06D9052B04D021
:1049D800DD2149002D48FBF71DFE2D4BDB69DB006F
:1049E8000BD42B4AD16980235B051943D161D26965
:1049F80013400193019B012500E00025274B1B680C
:104A0800DB0513D4254A1368802149000B43136042
:104A1800FDF730FE060005E0FDF72CFE801B64283C
:104A280000D9EBE11D4B1B68DB05F5D5A368012B0D
:104A380004D1174A116A0B43136220E0002B09D1F5
:104A4800134B1A6A01218A431A621A6A03318A438C
:104A58001A6214E0052B09D10D4B196A04220A4386
:104A68001A62196A01220A431A6208E0084B1A6A94
:104A780001218A431A621A6A03318A431A62A368B7
:104A8800002B19D0FDF7F6FD060010E0989B0008F2
:104A980000100240FFFFFEFFFFFFFBFF0070004019
:104AA800FDF7E8FD801BC24B984200D9A8E1C14B35
:104AB8001B6A9B07F4D50EE0FDF7DCFD060006E057
:104AC800FDF7D8FD801BBA4B984200D99AE1B94B43
:104AD8001B6A9B07F4D4012D04D1B64AD169B64BA1
:104AE8000B40D3612368DB065AD56369012B06D9CD
:104AF800053304D080218900B048FBF78BFDA369FA
:104B08001F2B03D9AE49AD48FBF784FD6369012B20
:104B180020D1A84B596B04220A435A63596B0122CE
:104B28000A435A63FDF7A6FD050005E0FDF7A2FD5F
:104B3800401B022800D967E19E4B5B6B9B07F5D5AC
:104B48009C494B6BF82293431A00A369DB0013437B
:104B58004B6325E005330CD196494B6B04229343F4
:104B68004B634B6BF4329343A269D20013434B63FC
:104B780016E0904B596B04220A435A635A6B012181
:104B88008A435A63FDF776FD050005E0FDF772FDDF
:104B9800401B022800D939E1864B5B6B9B07F5D493
:104BA80023689B064CD5236A012B03D98549834882
:104BB800FBF730FD7F4B5B680C2213400C2B0BD0AE
:104BC8007C4B5B681340082B0FD17A4B5B68C02283
:104BD80052021340934208D1764B5B6BDB032FD50F
:104BE800236A012B00D013E12AE0236A002B14D09A
:104BF800704A536B802149020B435363FDF73AFD1A
:104C0800050005E0FDF736FD401B022800D901E14B
:104C1800684B5B6BDB03F5D512E0664A516B6A4B58
:104C28000B405363FDF726FD050005E0FDF722FD67
:104C3800401B022800D9EFE05E4B5B6BDB03F5D429
:104C4800636A022B04D99D2189005C48FBF7E2FCCA
:104C5800636A002B00D1E1E0564A52680C210A40F1
:104C6800082A00D1DCE0022B00D08BE0A36A802266
:104C7800120293420BD0C0225202934207D08022E4
:104C88005202934203D051494C48FBF7C3FCE36AF4
:104C9800002B3BD08022D202934237D080221203CD
:104CA800934233D0C022120393422FD08022520362
:104CB80093422BD0A0225203934227D0C022520302
:104CC800934223D0E022520393421FD080229203C2
:104CD80093421BD090229203934217D0A0229203B2
:104CE800934213D0B022920393420FD0C022920372
:104CF80093420BD0D0229203934207D0E022920332
:104D0800934203D032492D48FBF784FC236B0F2BC9
:104D180003D930492948FBF77DFC264A11682E4BF8
:104D28000B401360FDF7A6FC050004E0FDF7A2FCAC
:104D3800401B022876D81F4B1B689B01F6D41D4BDD
:104D4800DA6A0F218A43216B0A43DA625868234AD8
:104D58001040E26AA16A0A4302435A601A68802135
:104D680049040A431A60FDF785FC040004E0FDF7D6
:104D780081FC001B022857D80E4B1B689B01F6D5F7
:104D8800002054E00B4A1168134B0B401360FDF7E9
:104D980071FC040004E0FDF76DFC001B022845D8F7
:104DA800044B1B689B01F6D4002040E001203EE044
:104DB8008813000000100240FFFFFFEF989B0008D7
:104DC800010200003E020000FFFFFEFF7D0200001E
:104DD8007E0200007F020000FFFFFFFEFF7FC2FF90
:104DE800032024E0032022E0012020E003201EE02D
:104DF80003201CE003201AE0032018E0032016E03B
:104E0800032014E0032012E0032010E003200EE04A
:104E180001200CE003200AE0032008E0002006E05F
:104E2800012004E0032002E0032000E0032002B098
:104E380070BDC04670B586B00C001600002803D0BF
:104E480038493948FBF7E6FB002E1FD080235B0565
:104E58009E421BD080239B059E4217D0C0239B05F2
:104E68009E4213D08023DB059E420FD0A023DB0592
:104E78009E420BD0C023DB059E4207D0E023DB0512
:104E88009E4203D029492848FBF7C4FB002C28D0B0
:104E980080239B049C4224D0C0239B049C4220D0A6
:104EA8008023DB049C421CD0A023DB049C4218D046
:104EB800C023DB049C4214D087231B069C4210D0DD
:104EC800E023DB049C420CD080235B049C4208D086
:104ED80080231B059C4204D0F82189001248FBF767
:104EE80099FB022302930133049300230393802246
:104EF8005200019205930E4D6A6980239B021A4362
:104F08006A616A6913400093009B01A99020C0055B
:104F1800FEF746F96A68074B134034431C436C603C
:104F280006B070BDDE030000989B0008DF03000098
:104F380000100240FFFFFF8010B588B01E4C102201
:104F4800210004A804F066FC2100103110226846F4
:104F580004F060FC194B5A680C231340082B03D04B
:104F68000C2B25D0164824E0910C0F20014004ABEF
:104F78005C5C124BDB6A03406946C95CC0235B0278
:104F88001A4080235B029A4204D10D4802F022FDA8
:104F980060430EE0C0235B029A4204D1094802F044
:104FA80019FD604305E0064802F014FD604300E087
:104FB800044808B010BDC046789B000800100240A5
:104FC80000127A00006CDC0270B504000D000028A5
:104FD80003D182498248FBF71DFB23685B0703D195
:104FE80080497F48FBF716FB012D04D9B7218900BA
:104FF8007B48FBF70FFB7C4B1B68012213409D424B
:105008000AD9794A136801218B432B43136013682B
:105018000B409D4200D0CCE023689B071DD5A368B8
:10502800002B13D0802B11D0902B0FD0A02B0DD09C
:10503800B02B0BD0C02B09D0D02B07D0E02B05D03C
:10504800F02B03D069496648FBF7E4FA684A5368CD
:10505800F0218B43A1680B4353602368DB0766D5B7
:105068006368032B03D963495D48FBF7D3FA636888
:10507800012B04D15E4A1268920313D49BE0022BE1
:1050880004D15B4A126892010CD496E0032B04D138
:10509800574A526BD20305D491E0554A12689207D9
:1050A80000D48EE052494A680320824313434B6080
:1050B800FDF7E0FA06006368012B0DD105E0FDF766
:1050C800D9FA801B4C4B98427DD8494B5B680C221F
:1050D8001340042BF3D12AE0022B0DD105E0FDF794
:1050E800C9FA801B444B98426FD8414B5B680C222D
:1050F8001340082BF3D11AE0032B13D105E0FDF779
:10510800B9FA801B3C4B984261D8394B5B680C223A
:1051180013400C2BF3D10AE0FDF7ACFA801B364B99
:10512800984256D8324B5B680C221A42F4D12E4B67
:105138001B68012213409D4209D22B4A13680121A2
:105148008B432B43136013680B409D4243D1236864
:105158005B071DD5E368002B13D08022D200934251
:105168000FD00132FF3293420BD00132FF3293420B
:1051780007D00132FF32934203D020491848FBF789
:1051880049FA1B494A681E4B1340E26813434B60B7
:10519800FFF7D2FE164B5B681B090F221340194A12
:1051A800D35CD840184B18600020FDF739FA00206E
:1051B80012E0012010E001200EE001200CE00120A7
:1051C8000AE0012008E0032006E0032004E00320B1
:1051D80002E0032000E0012070BDC046DA020000B2
:1051E800989B0008DB02000000200240F302000048
:1051F80000100240FA020000881300006303000058
:10520800FFF8FFFF6898000804000020014B1868A9
:105218007047C0460400002070B582B00400774B88
:1052280002689A4203D97E217548FBF7F3F923688F
:10523800DB0372D56368002B0FD0802252009342A3
:105248000BD00132FF32934207D00132FF32934232
:1052580003D084216A48FBF7DDF96A4BDB69DB0080
:105268000BD4684AD16980235B051943D161D2699F
:1052780013400193019B012500E00025624B1B6848
:10528800DB0513D4604A1368802149000B4313607F
:10529800FDF7F0F9060005E0FDF7ECF9801B64283E
:1052A80000D9A4E0584B1B68DB05F5D5554B1A6AA5
:1052B800C0239B00134023D0C022920061680A409B
:1052C80093421DD04F4B186A504A0240196A8026F3
:1052D8007602314319621E6A4D49314019621A62D9
:1052E800C3070DD5FDF7C6F9060005E0FDF7C2F9BD
:1052F800801B484B98427CD8424B1B6A9B07F5D5CC
:10530800404A116A414B0B4061680B431362012DFF
:1053180003D1D169404B0B40D3612368DB070DD51E
:10532800A368032B03D9CB213548FBF773F9354A1A
:10533800136B03218B43A1680B43136323689B07FB
:1053480019D5E368002B0FD08022520293420BD06C
:1053580080229202934207D0C0229202934203D045
:10536800D7212748FBF756F9264A116B2B4B0B40E0
:10537800E1680B43136323689B060FD52369002B51
:1053880005D0102B03D0EF211D48FBF743F91D4A28
:10539800136B10218B4321690B43136323689B0311
:1053A8000FD5A369002B05D0802B03D0FA21144810
:1053B800FBF730F9134A136B80218B43A1690B4328
:1053C800136323685B0516D56369002B06D0402B51
:1053D80004D00A21FF310A48FBF71CF909490B6B75
:1053E80040229343626913430B63002004E00320C7
:1053F80002E0032000E0002002B070BD2304030097
:10540800D09B00080010024000700040FFFCFFFF26
:10541800FFFFFEFF88130000FFFFFFEFFFFFFCFF09
:10542800F8B506000C0017001D0039E06B1C37D0DA
:10543800002D05D0FDF71EF9069BC01A85422FD80E
:1054480032685368E0218B43536082235B007268A3
:105458009A420DD1B36880221202934203D080226F
:10546800D200934204D13268136840218B43136001
:1054780080239B01B26A9A420AD1326811680E4BA6
:105488000B40136032681368802189010B43136055
:1054980001225D23F2540022013BF25403200AE06A
:1054A80033689B6823409C4201D1012300E000231C
:1054B800BB42BBD10020F8BDFFDFFFFFF0B583B0D2
:1054C80007000C0015001E0044E0C023DB009C42CE
:1054D80006D1002D04D1137BDBB26A46D371D37990
:1054E800731C37D0002E05D0FDF7C4F8089BC01AEE
:1054F80086422FD83A685368E0218B435360822351
:105508005B007A689A420DD1BB68802212029342EE
:1055180003D08022D200934204D13A681368402114
:105528008B43136080239B01BA6A9A420AD13A6876
:1055380011680C4B0B4013603A681368802189018D
:105548000B43136001225D23FA540022013BFA54F5
:10555800032005E03A6893682340AB42B5D10020A8
:1055680003B0F0BDFFDFFFFF70B582B004000D008F
:10557800160000920B000022C0214901FFF79EFF90
:10558800002805D0226E20231343236603201DE044
:1055980000962B00002280212000FFF741FF002801
:1055A80005D0226E20231343236603200EE00096C5
:1055B8002B000022C021C9002000FFF77FFF002830
:1055C80004D0226E202313432366032002B070BD4B
:1055D80070B5041E00D119E103688D4A934207D0C3
:1055E8008C4A934204D0922149008B48FBF712F869
:1055F8006368002B08D082225200934204D02621EF
:10560800FF318548FBF706F8A368002B0CD08022F1
:10561800D200934208D080221202934204D09321F0
:1056280049007D48FAF7F6FFE368F0221201934239
:1056380034D0013AFF3A934230D0013AFF3A9342CC
:105648002CD0013AFF3A934228D0013AFF3A9342CC
:1056580024D0013AFF3A934220D0013AFF3A9342CC
:105668001CD0013AFF3A934218D0013AFF3A9342CC
:1056780014D0013AFF3A934210D0013AFF3A9342CC
:105688000CD0013AFF3A934208D0013AFF3A9342CC
:1056980004D02821FF316048FAF7BCFFA3698022B3
:1056A800920093420AD0002B08D08022D202934263
:1056B80004D0942149005848FAF7ACFF636B082BD3
:1056C80006D0002B04D02A21FF315348FAF7A2FF55
:1056D800E369002B12D0082B10D0102B0ED0182BFA
:1056E8000CD0202B0AD0282B08D0302B06D0382BF2
:1056F80004D0952149004848FAF78CFF236A002B0B
:1057080006D0802B04D02C21FF314348FAF782FFC2
:10571800636A002B06D0102B04D0962149003E481E
:10572800FAF778FF636A002B11D12369002B06D0A2
:10573800022B04D03021FF313748FAF76BFF636939
:10574800012B04D9982149003348FAF763FF002355
:10575800A3625D33E35C002B05D100225C33E25485
:105768002000FAF7BFFF02225D23E2542268136883
:1057780040218B431360E268E023DB009A4201D9A1
:10578800002001E080204001F0231B019A4205D04F
:10579800E023DB009A4201D00023A362236B002B95
:1057A80008D1E023DB009A4202D90223236301E0F7
:1057B8000123236323686268A1680A4321690A43B5
:1057C80061690A4380218900A56929400A43E16982
:1057D8000A43216A0A43A16A0A431A602168628B54
:1057E80004231340626A1343626B1343E268134352
:1057F80003434B602268D169084B0B40D3610023F7
:10580800236601225D33E254002000E0012070BDD0
:1058180000300140003800400C9C0008FFF7FFFFF3
:10582800F0B585B004000D0016001F00E023DB0072
:10583800C2689A4201D8012E05D9EB0703D57349EE
:105848007348FAF7E7FEA368002B07D080221202FC
:10585800934203D06F496E48FAF7DCFE5C23E35CA1
:10586800012B00D1CEE001225C23E254FCF702FFB9
:1058780001905D23E35C012B00D0AFE0002E00D146
:10588800AEE003225C33E25400232366A563A687B7
:10589800E68723644132A3520232A3522365E364AC
:1058A80080231B02A2689A4205D1226813688021CE
:1058B800C9010B43136023681A68520603D4196898
:1058C80040220A431A60E023DB00E2689A422AD9A0
:1058D8006368002B03D0E38F9BB2012B1ED1236892
:1058E8002A88DA600235E38F013B9BB2E38715E033
:1058F80023689A68920707D52A88DA600235E38F09
:10590800013B9BB2E38709E0002F6BD07B1C05D0DD
:10591800FCF7B0FE019BC01A874265D9E38F9BB2A2
:10592800002BE5D142E06368002B03D0E38F9BB2E4
:10593800012B37D1E38F9BB2012B08D923682A8822
:10594800DA600235E38F023B9BB2E3872AE02B78CB
:1059580022681373E38F013B9BB2E387013521E093
:1059680023689A68920713D5E28F92B2012A07D961
:105978002A88DA600235E38F023B9BB2E38711E0A5
:105988002A781A73E38F013B9BB2E387013509E05C
:10599800002F2BD07B1C05D0FCF76CFE019BC01A96
:1059A800874225D9E38F9BB2002BD9D1019A3900C0
:1059B8002000FFF7D9FD002801D020232366A36823
:1059C800002B06D103932368DA6803929B6803933C
:1059D800039B236E002B0DD100200CE002200AE06F
:1059E800012008E0032006E0032004E0032002E091
:1059F800032000E0012001225D23E2540022013B44
:105A0800E25400E0022005B0F0BDC04609020000E3
:105A18000C9C00080D020000F8B54F464646C0B47D
:105A280004000E0015001F00E023DB00C2689A4244
:105A380001D8012F0CD9F30704D5EE218900AF480E
:105A4800FAF7E8FDEB0703D5AD49AC48FAF7E2FDF4
:105A5800A368002B03D0AB49A848FAF7DBFD5C2309
:105A6800E35C012B00D144E101225C23E254FCF702
:105A780001FE81465D23E35CDBB26268012B0BD03B
:105A8800822149008A4200D01FE1A268002A00D082
:105A98001DE1042B00D01CE1002F00D11BE15D2388
:105AA800E35C042B02D005225D23E2540023236625
:105AB80025644622A752023AA752A663E787A7871A
:105AC800E3642365E023DB00E2689A4204D84623B6
